{
  "_format": "hh-sol-artifact-1",
  "contractName": "FeedbackFormFactory",
  "sourceName": "contracts/FeedbackFormFactory.sol",
  "abi": [
    {
      "inputs": [
        {
          "internalType": "string[]",
          "name": "_questions",
          "type": "string[]"
        },
        {
          "internalType": "string",
          "name": "_title",
          "type": "string"
        },
        {
          "internalType": "string",
          "name": "_description",
          "type": "string"
        }
      ],
      "name": "createFeedbackForm",
      "outputs": [
        {
          "internalType": "contract FeedbackForm",
          "name": "",
          "type": "address"
        }
      ],
      "stateMutability": "nonpayable",
      "type": "function"
    },
    {
      "inputs": [
        {
          "internalType": "uint256",
          "name": "",
          "type": "uint256"
        }
      ],
      "name": "feedbackForms",
      "outputs": [
        {
          "internalType": "contract FeedbackForm",
          "name": "",
          "type": "address"
        }
      ],
      "stateMutability": "view",
      "type": "function"
    },
    {
      "inputs": [
        {
          "internalType": "uint256",
          "name": "_id",
          "type": "uint256"
        }
      ],
      "name": "getAllQuestions",
      "outputs": [
        {
          "components": [
            {
              "internalType": "string",
              "name": "value",
              "type": "string"
            },
            {
              "internalType": "uint256[]",
              "name": "feedback",
              "type": "uint256[]"
            }
          ],
          "internalType": "struct FeedbackForm.Question[]",
          "name": "",
          "type": "tuple[]"
        }
      ],
      "stateMutability": "view",
      "type": "function"
    },
    {
      "inputs": [
        {
          "internalType": "uint256",
          "name": "_id",
          "type": "uint256"
        }
      ],
      "name": "getFeedbackFormById",
      "outputs": [
        {
          "internalType": "contract FeedbackForm",
          "name": "",
          "type": "address"
        }
      ],
      "stateMutability": "view",
      "type": "function"
    },
    {
      "inputs": [],
      "name": "getFeedbackForms",
      "outputs": [
        {
          "internalType": "contract FeedbackForm[]",
          "name": "",
          "type": "address[]"
        }
      ],
      "stateMutability": "view",
      "type": "function"
    },
    {
      "inputs": [
        {
          "internalType": "uint256",
          "name": "_id",
          "type": "uint256"
        },
        {
          "internalType": "uint256[]",
          "name": "_feedback",
          "type": "uint256[]"
        }
      ],
      "name": "submitFeedback",
      "outputs": [],
      "stateMutability": "nonpayable",
      "type": "function"
    }
  ],
  "bytecode": "0x608060405234801561001057600080fd5b506130bc806100206000396000f3fe60806040523480156200001157600080fd5b50600436106200006a5760003560e01c8063324a56a4146200006f5780638b64d52514620000a5578063ab3f7b4a14620000db578063c01471bb14620000fb578063e4216dc31462000131578063ec07bff61462000153575b600080fd5b6200008d600480360381019062000087919062000592565b62000189565b6040516200009c91906200064f565b60405180910390f35b620000c36004803603810190620000bd919062000592565b620001c9565b604051620000d291906200064f565b60405180910390f35b620000f96004803603810190620000f39190620007e1565b62000213565b005b62000119600480360381019062000113919062000592565b620002c7565b60405162000128919062000ac0565b60405180910390f35b6200013b62000388565b6040516200014a919062000bb2565b60405180910390f35b6200017160048036038101906200016b919062000d95565b62000418565b6040516200018091906200064f565b60405180910390f35b600081815481106200019a57600080fd5b906000526020600020016000915054906101000a900473ffffffffffffffffffffffffffffffffffffffff1681565b6000808281548110620001e157620001e062000e4e565b5b9060005260206000200160009054906101000a900473ffffffffffffffffffffffffffffffffffffffff169050919050565b600082815481106200022a576200022962000e4e565b5b9060005260206000200160009054906101000a900473ffffffffffffffffffffffffffffffffffffffff1673ffffffffffffffffffffffffffffffffffffffff1663b1329719826040518263ffffffff1660e01b81526004016200028f919062000ef8565b600060405180830381600087803b158015620002aa57600080fd5b505af1158015620002bf573d6000803e3d6000fd5b505050505050565b606060008281548110620002e057620002df62000e4e565b5b9060005260206000200160009054906101000a900473ffffffffffffffffffffffffffffffffffffffff1673ffffffffffffffffffffffffffffffffffffffff16632af9338e6040518163ffffffff1660e01b8152600401600060405180830381865afa15801562000356573d6000803e3d6000fd5b505050506040513d6000823e3d601f19601f82011682018060405250810190620003819190620011f0565b9050919050565b606060008054806020026020016040519081016040528092919081815260200182805480156200040e57602002820191906000526020600020905b8160009054906101000a900473ffffffffffffffffffffffffffffffffffffffff1673ffffffffffffffffffffffffffffffffffffffff1681526020019060010190808311620003c3575b5050505050905090565b60008083836040516200042b9062000535565b6200043892919062001293565b604051809103906000f08015801562000455573d6000803e3d6000fd5b5090508073ffffffffffffffffffffffffffffffffffffffff1663c627278f866040518263ffffffff1660e01b81526004016200049391906200139e565b600060405180830381600087803b158015620004ae57600080fd5b505af1158015620004c3573d6000803e3d6000fd5b505050506000819080600181540180825580915050600190039060005260206000200160009091909190916101000a81548173ffffffffffffffffffffffffffffffffffffffff021916908373ffffffffffffffffffffffffffffffffffffffff160217905550809150509392505050565b611cc480620013c383390190565b6000604051905090565b600080fd5b600080fd5b6000819050919050565b6200056c8162000557565b81146200057857600080fd5b50565b6000813590506200058c8162000561565b92915050565b600060208284031215620005ab57620005aa6200054d565b5b6000620005bb848285016200057b565b91505092915050565b600073ffffffffffffffffffffffffffffffffffffffff82169050919050565b6000819050919050565b60006200060f620006096200060384620005c4565b620005e4565b620005c4565b9050919050565b60006200062382620005ee565b9050919050565b6000620006378262000616565b9050919050565b62000649816200062a565b82525050565b60006020820190506200066660008301846200063e565b92915050565b600080fd5b6000601f19601f8301169050919050565b7f4e487b7100000000000000000000000000000000000000000000000000000000600052604160045260246000fd5b620006bc8262000671565b810181811067ffffffffffffffff82111715620006de57620006dd62000682565b5b80604052505050565b6000620006f362000543565b9050620007018282620006b1565b919050565b600067ffffffffffffffff82111562000724576200072362000682565b5b602082029050602081019050919050565b600080fd5b6000620007516200074b8462000706565b620006e7565b9050808382526020820190506020840283018581111562000777576200077662000735565b5b835b81811015620007a457806200078f88826200057b565b84526020840193505060208101905062000779565b5050509392505050565b600082601f830112620007c657620007c56200066c565b5b8135620007d88482602086016200073a565b91505092915050565b60008060408385031215620007fb57620007fa6200054d565b5b60006200080b858286016200057b565b925050602083013567ffffffffffffffff8111156200082f576200082e62000552565b5b6200083d85828601620007ae565b9150509250929050565b600081519050919050565b600082825260208201905092915050565b6000819050602082019050919050565b600081519050919050565b600082825260208201905092915050565b60005b83811015620008af57808201518184015260208101905062000892565b83811115620008bf576000848401525b50505050565b6000620008d28262000873565b620008de81856200087e565b9350620008f08185602086016200088f565b620008fb8162000671565b840191505092915050565b600081519050919050565b600082825260208201905092915050565b6000819050602082019050919050565b6200093d8162000557565b82525050565b600062000951838362000932565b60208301905092915050565b6000602082019050919050565b6000620009778262000906565b62000983818562000911565b9350620009908362000922565b8060005b83811015620009c7578151620009ab888262000943565b9750620009b8836200095d565b92505060018101905062000994565b5085935050505092915050565b60006040830160008301518482036000860152620009f38282620008c5565b9150506020830151848203602086015262000a0f82826200096a565b9150508091505092915050565b600062000a2a8383620009d4565b905092915050565b6000602082019050919050565b600062000a4c8262000847565b62000a58818562000852565b93508360208202850162000a6c8562000863565b8060005b8581101562000aae578484038952815162000a8c858262000a1c565b945062000a998362000a32565b925060208a0199505060018101905062000a70565b50829750879550505050505092915050565b6000602082019050818103600083015262000adc818462000a3f565b905092915050565b600081519050919050565b600082825260208201905092915050565b6000819050602082019050919050565b62000b1b816200062a565b82525050565b600062000b2f838362000b10565b60208301905092915050565b6000602082019050919050565b600062000b558262000ae4565b62000b61818562000aef565b935062000b6e8362000b00565b8060005b8381101562000ba557815162000b89888262000b21565b975062000b968362000b3b565b92505060018101905062000b72565b5085935050505092915050565b6000602082019050818103600083015262000bce818462000b48565b905092915050565b600067ffffffffffffffff82111562000bf45762000bf362000682565b5b602082029050602081019050919050565b600080fd5b600067ffffffffffffffff82111562000c285762000c2762000682565b5b62000c338262000671565b9050602081019050919050565b82818337600083830152505050565b600062000c6662000c608462000c0a565b620006e7565b90508281526020810184848401111562000c855762000c8462000c05565b5b62000c9284828562000c40565b509392505050565b600082601f83011262000cb25762000cb16200066c565b5b813562000cc484826020860162000c4f565b91505092915050565b600062000ce462000cde8462000bd6565b620006e7565b9050808382526020820190506020840283018581111562000d0a5762000d0962000735565b5b835b8181101562000d5857803567ffffffffffffffff81111562000d335762000d326200066c565b5b80860162000d42898262000c9a565b8552602085019450505060208101905062000d0c565b5050509392505050565b600082601f83011262000d7a5762000d796200066c565b5b813562000d8c84826020860162000ccd565b91505092915050565b60008060006060848603121562000db15762000db06200054d565b5b600084013567ffffffffffffffff81111562000dd25762000dd162000552565b5b62000de08682870162000d62565b935050602084013567ffffffffffffffff81111562000e045762000e0362000552565b5b62000e128682870162000c9a565b925050604084013567ffffffffffffffff81111562000e365762000e3562000552565b5b62000e448682870162000c9a565b9150509250925092565b7f4e487b7100000000000000000000000000000000000000000000000000000000600052603260045260246000fd5b600082825260208201905092915050565b600062000e9b8262000906565b62000ea7818562000e7d565b935062000eb48362000922565b8060005b8381101562000eeb57815162000ecf888262000943565b975062000edc836200095d565b92505060018101905062000eb8565b5085935050505092915050565b6000602082019050818103600083015262000f14818462000e8e565b905092915050565b600067ffffffffffffffff82111562000f3a5762000f3962000682565b5b602082029050602081019050919050565b600080fd5b600080fd5b600062000f6c62000f668462000c0a565b620006e7565b90508281526020810184848401111562000f8b5762000f8a62000c05565b5b62000f988482856200088f565b509392505050565b600082601f83011262000fb85762000fb76200066c565b5b815162000fca84826020860162000f55565b91505092915050565b60008151905062000fe48162000561565b92915050565b60006200100162000ffb8462000706565b620006e7565b9050808382526020820190506020840283018581111562001027576200102662000735565b5b835b818110156200105457806200103f888262000fd3565b84526020840193505060208101905062001029565b5050509392505050565b600082601f8301126200107657620010756200066c565b5b81516200108884826020860162000fea565b91505092915050565b600060408284031215620010aa57620010a962000f4b565b5b620010b66040620006e7565b9050600082015167ffffffffffffffff811115620010d957620010d862000f50565b5b620010e78482850162000fa0565b600083015250602082015167ffffffffffffffff8111156200110e576200110d62000f50565b5b6200111c848285016200105e565b60208301525092915050565b60006200113f620011398462000f1c565b620006e7565b9050808382526020820190506020840283018581111562001165576200116462000735565b5b835b81811015620011b357805167ffffffffffffffff8111156200118e576200118d6200066c565b5b8086016200119d898262001091565b8552602085019450505060208101905062001167565b5050509392505050565b600082601f830112620011d557620011d46200066c565b5b8151620011e784826020860162001128565b91505092915050565b6000602082840312156200120957620012086200054d565b5b600082015167ffffffffffffffff8111156200122a576200122962000552565b5b6200123884828501620011bd565b91505092915050565b600082825260208201905092915050565b60006200125f8262000873565b6200126b818562001241565b93506200127d8185602086016200088f565b620012888162000671565b840191505092915050565b60006040820190508181036000830152620012af818562001252565b90508181036020830152620012c5818462001252565b90509392505050565b600081519050919050565b600082825260208201905092915050565b6000819050602082019050919050565b6000620013088383620008c5565b905092915050565b6000602082019050919050565b60006200132a82620012ce565b620013368185620012d9565b9350836020820285016200134a85620012ea565b8060005b858110156200138c57848403895281516200136a8582620012fa565b9450620013778362001310565b925060208a019950506001810190506200134e565b50829750879550505050505092915050565b60006020820190508181036000830152620013ba81846200131d565b90509291505056fe60806040523480156200001157600080fd5b5060405162001cc438038062001cc48339818101604052810190620000379190620002ff565b32600160006101000a81548173ffffffffffffffffffffffffffffffffffffffff021916908373ffffffffffffffffffffffffffffffffffffffff160217905550816002908051906020019062000090929190620000b2565b508060039080519060200190620000a9929190620000b2565b505050620003e8565b828054620000c090620003b3565b90600052602060002090601f016020900481019282620000e4576000855562000130565b82601f10620000ff57805160ff191683800117855562000130565b8280016001018555821562000130579182015b828111156200012f57825182559160200191906001019062000112565b5b5090506200013f919062000143565b5090565b5b808211156200015e57600081600090555060010162000144565b5090565b6000604051905090565b600080fd5b600080fd5b600080fd5b600080fd5b6000601f19601f8301169050919050565b7f4e487b7100000000000000000000000000000000000000000000000000000000600052604160045260246000fd5b620001cb8262000180565b810181811067ffffffffffffffff82111715620001ed57620001ec62000191565b5b80604052505050565b60006200020262000162565b9050620002108282620001c0565b919050565b600067ffffffffffffffff82111562000233576200023262000191565b5b6200023e8262000180565b9050602081019050919050565b60005b838110156200026b5780820151818401526020810190506200024e565b838111156200027b576000848401525b50505050565b600062000298620002928462000215565b620001f6565b905082815260208101848484011115620002b757620002b66200017b565b5b620002c48482856200024b565b509392505050565b600082601f830112620002e457620002e362000176565b5b8151620002f684826020860162000281565b91505092915050565b600080604083850312156200031957620003186200016c565b5b600083015167ffffffffffffffff8111156200033a576200033962000171565b5b6200034885828601620002cc565b925050602083015167ffffffffffffffff8111156200036c576200036b62000171565b5b6200037a85828601620002cc565b9150509250929050565b7f4e487b7100000000000000000000000000000000000000000000000000000000600052602260045260246000fd5b60006002820490506001821680620003cc57607f821691505b602082108103620003e257620003e162000384565b5b50919050565b6118cc80620003f86000396000f3fe608060405234801561001057600080fd5b506004361061009e5760003560e01c80638da5cb5b116100665780638da5cb5b1461015d57806390038dce1461017b578063b1329719146101ab578063c627278f146101c7578063e25f3e02146101e35761009e565b80632af9338e146100a357806331b1b978146100c15780634a79d50c146100f15780635a6a7d571461010f5780637284e4161461013f575b600080fd5b6100ab610214565b6040516100b89190610f7f565b60405180910390f35b6100db60048036038101906100d69190610fe1565b6103bd565b6040516100e89190611058565b60405180910390f35b6100f9610463565b6040516101069190611058565b60405180910390f35b610129600480360381019061012491906110d8565b6104f1565b6040516101369190611120565b60405180910390f35b610147610547565b6040516101549190611058565b60405180910390f35b6101656105d5565b604051610172919061114a565b60405180910390f35b610195600480360381019061019091906110d8565b6105fb565b6040516101a29190611120565b60405180910390f35b6101c560048036038101906101c091906112ad565b61061b565b005b6101e160048036038101906101dc919061148c565b610843565b005b6101fd60048036038101906101f89190610fe1565b61097c565b60405161020b929190611544565b60405180910390f35b60606000805467ffffffffffffffff8111156102335761023261116a565b5b60405190808252806020026020018201604052801561026c57816020015b610259610c04565b8152602001906001900390816102515790505b50905060005b6000548110156103b557600460008281526020019081526020016000206040518060400160405290816000820180546102aa906115aa565b80601f01602080910402602001604051908101604052809291908181526020018280546102d6906115aa565b80156103235780601f106102f857610100808354040283529160200191610323565b820191906000526020600020905b81548152906001019060200180831161030657829003601f168201915b505050505081526020016001820180548060200260200160405190810160405280929190818152602001828054801561037b57602002820191906000526020600020905b815481526020019060010190808311610367575b505050505081525050828281518110610397576103966115db565b5b602002602001018190525080806103ad90611639565b915050610272565b508091505090565b60046020528060005260406000206000915090508060000180546103e0906115aa565b80601f016020809104026020016040519081016040528092919081815260200182805461040c906115aa565b80156104595780601f1061042e57610100808354040283529160200191610459565b820191906000526020600020905b81548152906001019060200180831161043c57829003601f168201915b5050505050905081565b60028054610470906115aa565b80601f016020809104026020016040519081016040528092919081815260200182805461049c906115aa565b80156104e95780601f106104be576101008083540402835291602001916104e9565b820191906000526020600020905b8154815290600101906020018083116104cc57829003601f168201915b505050505081565b6000600560008373ffffffffffffffffffffffffffffffffffffffff1673ffffffffffffffffffffffffffffffffffffffff16815260200190815260200160002060009054906101000a900460ff169050919050565b60038054610554906115aa565b80601f0160208091040260200160405190810160405280929190818152602001828054610580906115aa565b80156105cd5780601f106105a2576101008083540402835291602001916105cd565b820191906000526020600020905b8154815290600101906020018083116105b057829003601f168201915b505050505081565b600160009054906101000a900473ffffffffffffffffffffffffffffffffffffffff1681565b60056020528060005260406000206000915054906101000a900460ff1681565b600560003273ffffffffffffffffffffffffffffffffffffffff1673ffffffffffffffffffffffffffffffffffffffff16815260200190815260200160002060009054906101000a900460ff16156106a8576040517f08c379a000000000000000000000000000000000000000000000000000000000815260040161069f906116f3565b60405180910390fd5b8051600054146106ed576040517f08c379a00000000000000000000000000000000000000000000000000000000081526004016106e490611785565b60405180910390fd5b60005b815181101561076957600060046000838152602001908152602001600020905080600101838381518110610727576107266115db565b5b6020026020010151908060018154018082558091505060019003906000526020600020016000909190919091505550808061076190611639565b9150506106f0565b506001600560003273ffffffffffffffffffffffffffffffffffffffff1673ffffffffffffffffffffffffffffffffffffffff16815260200190815260200160002060006101000a81548160ff0219169083151502179055506108016040518060400160405280600f81526020017f74782e6f726967696e20203d3e2032000000000000000000000000000000000081525032610b22565b6108406040518060400160405280600f81526020017f6d73672e73656e646572203d3e2032000000000000000000000000000000000081525033610b22565b50565b600160009054906101000a900473ffffffffffffffffffffffffffffffffffffffff1673ffffffffffffffffffffffffffffffffffffffff163273ffffffffffffffffffffffffffffffffffffffff16146108d3576040517f08c379a00000000000000000000000000000000000000000000000000000000081526004016108ca90611817565b60405180910390fd5b805160008190555060005b600054811015610978576108f0610c04565b828281518110610903576109026115db565b5b6020026020010151816000018190525080600460008481526020019081526020016000206000820151816000019080519060200190610943929190610c1e565b506020820151816001019080519060200190610960929190610ca4565b5090505050808061097090611639565b9150506108de565b5050565b606080600160009054906101000a900473ffffffffffffffffffffffffffffffffffffffff1673ffffffffffffffffffffffffffffffffffffffff163273ffffffffffffffffffffffffffffffffffffffff1614610a0f576040517f08c379a0000000000000000000000000000000000000000000000000000000008152600401610a0690611817565b60405180910390fd5b6004600084815260200190815260200160002060000160046000858152602001908152602001600020600101818054610a47906115aa565b80601f0160208091040260200160405190810160405280929190818152602001828054610a73906115aa565b8015610ac05780601f10610a9557610100808354040283529160200191610ac0565b820191906000526020600020905b815481529060010190602001808311610aa357829003601f168201915b5050505050915080805480602002602001604051908101604052809291908181526020018280548015610b1257602002820191906000526020600020905b815481526020019060010190808311610afe575b5050505050905091509150915091565b610bba8282604051602401610b38929190611837565b6040516020818303038152906040527f319af333000000000000000000000000000000000000000000000000000000007bffffffffffffffffffffffffffffffffffffffffffffffffffffffff19166020820180517bffffffffffffffffffffffffffffffffffffffffffffffffffffffff8381831617835250505050610bbe565b5050565b610bd581610bcd610bd8610bf9565b63ffffffff16565b50565b60006a636f6e736f6c652e6c6f679050600080835160208501845afa505050565b610cf1819050919050565b604051806040016040528060608152602001606081525090565b828054610c2a906115aa565b90600052602060002090601f016020900481019282610c4c5760008555610c93565b82601f10610c6557805160ff1916838001178555610c93565b82800160010185558215610c93579182015b82811115610c92578251825591602001919060010190610c77565b5b509050610ca09190610cfb565b5090565b828054828255906000526020600020908101928215610ce0579160200282015b82811115610cdf578251825591602001919060010190610cc4565b5b509050610ced9190610cfb565b5090565b610cf9611867565b565b5b80821115610d14576000816000905550600101610cfc565b5090565b600081519050919050565b600082825260208201905092915050565b6000819050602082019050919050565b600081519050919050565b600082825260208201905092915050565b60005b83811015610d7e578082015181840152602081019050610d63565b83811115610d8d576000848401525b50505050565b6000601f19601f8301169050919050565b6000610daf82610d44565b610db98185610d4f565b9350610dc9818560208601610d60565b610dd281610d93565b840191505092915050565b600081519050919050565b600082825260208201905092915050565b6000819050602082019050919050565b6000819050919050565b610e1c81610e09565b82525050565b6000610e2e8383610e13565b60208301905092915050565b6000602082019050919050565b6000610e5282610ddd565b610e5c8185610de8565b9350610e6783610df9565b8060005b83811015610e98578151610e7f8882610e22565b9750610e8a83610e3a565b925050600181019050610e6b565b5085935050505092915050565b60006040830160008301518482036000860152610ec28282610da4565b91505060208301518482036020860152610edc8282610e47565b9150508091505092915050565b6000610ef58383610ea5565b905092915050565b6000602082019050919050565b6000610f1582610d18565b610f1f8185610d23565b935083602082028501610f3185610d34565b8060005b85811015610f6d5784840389528151610f4e8582610ee9565b9450610f5983610efd565b925060208a01995050600181019050610f35565b50829750879550505050505092915050565b60006020820190508181036000830152610f998184610f0a565b905092915050565b6000604051905090565b600080fd5b600080fd5b610fbe81610e09565b8114610fc957600080fd5b50565b600081359050610fdb81610fb5565b92915050565b600060208284031215610ff757610ff6610fab565b5b600061100584828501610fcc565b91505092915050565b600082825260208201905092915050565b600061102a82610d44565b611034818561100e565b9350611044818560208601610d60565b61104d81610d93565b840191505092915050565b60006020820190508181036000830152611072818461101f565b905092915050565b600073ffffffffffffffffffffffffffffffffffffffff82169050919050565b60006110a58261107a565b9050919050565b6110b58161109a565b81146110c057600080fd5b50565b6000813590506110d2816110ac565b92915050565b6000602082840312156110ee576110ed610fab565b5b60006110fc848285016110c3565b91505092915050565b60008115159050919050565b61111a81611105565b82525050565b60006020820190506111356000830184611111565b92915050565b6111448161109a565b82525050565b600060208201905061115f600083018461113b565b92915050565b600080fd5b7f4e487b7100000000000000000000000000000000000000000000000000000000600052604160045260246000fd5b6111a282610d93565b810181811067ffffffffffffffff821117156111c1576111c061116a565b5b80604052505050565b60006111d4610fa1565b90506111e08282611199565b919050565b600067ffffffffffffffff821115611200576111ff61116a565b5b602082029050602081019050919050565b600080fd5b6000611229611224846111e5565b6111ca565b9050808382526020820190506020840283018581111561124c5761124b611211565b5b835b8181101561127557806112618882610fcc565b84526020840193505060208101905061124e565b5050509392505050565b600082601f83011261129457611293611165565b5b81356112a4848260208601611216565b91505092915050565b6000602082840312156112c3576112c2610fab565b5b600082013567ffffffffffffffff8111156112e1576112e0610fb0565b5b6112ed8482850161127f565b91505092915050565b600067ffffffffffffffff8211156113115761131061116a565b5b602082029050602081019050919050565b600080fd5b600067ffffffffffffffff8211156113425761134161116a565b5b61134b82610d93565b9050602081019050919050565b82818337600083830152505050565b600061137a61137584611327565b6111ca565b90508281526020810184848401111561139657611395611322565b5b6113a1848285611358565b509392505050565b600082601f8301126113be576113bd611165565b5b81356113ce848260208601611367565b91505092915050565b60006113ea6113e5846112f6565b6111ca565b9050808382526020820190506020840283018581111561140d5761140c611211565b5b835b8181101561145457803567ffffffffffffffff81111561143257611431611165565b5b80860161143f89826113a9565b8552602085019450505060208101905061140f565b5050509392505050565b600082601f83011261147357611472611165565b5b81356114838482602086016113d7565b91505092915050565b6000602082840312156114a2576114a1610fab565b5b600082013567ffffffffffffffff8111156114c0576114bf610fb0565b5b6114cc8482850161145e565b91505092915050565b600082825260208201905092915050565b60006114f182610ddd565b6114fb81856114d5565b935061150683610df9565b8060005b8381101561153757815161151e8882610e22565b975061152983610e3a565b92505060018101905061150a565b5085935050505092915050565b6000604082019050818103600083015261155e818561101f565b9050818103602083015261157281846114e6565b90509392505050565b7f4e487b7100000000000000000000000000000000000000000000000000000000600052602260045260246000fd5b600060028204905060018216806115c257607f821691505b6020821081036115d5576115d461157b565b5b50919050565b7f4e487b7100000000000000000000000000000000000000000000000000000000600052603260045260246000fd5b7f4e487b7100000000000000000000000000000000000000000000000000000000600052601160045260246000fd5b600061164482610e09565b91507fffffffffffffffffffffffffffffffffffffffffffffffffffffffffffffffff82036116765761167561160a565b5b600182019050919050565b7f557365722068617320616c7265616479207072766f646564206665656462616360008201527f6b2e000000000000000000000000000000000000000000000000000000000000602082015250565b60006116dd60228361100e565b91506116e882611681565b604082019050919050565b6000602082019050818103600083015261170c816116d0565b9050919050565b7f466565646261636b2073686f756c642062652070726f766964656420666f722060008201527f616c6c207175657374696f6e732e000000000000000000000000000000000000602082015250565b600061176f602e8361100e565b915061177a82611713565b604082019050919050565b6000602082019050818103600083015261179e81611762565b9050919050565b7f4f6e6c79206f776e65722063616e2063616c6c20746869732066756e6374696f60008201527f6e2e000000000000000000000000000000000000000000000000000000000000602082015250565b600061180160228361100e565b915061180c826117a5565b604082019050919050565b60006020820190508181036000830152611830816117f4565b9050919050565b60006040820190508181036000830152611851818561101f565b9050611860602083018461113b565b9392505050565b7f4e487b7100000000000000000000000000000000000000000000000000000000600052605160045260246000fdfea264697066735822122000487a2605ca0527eefef99cf510a14d9a3cebb0e5b497426e6cbbd14f0921a264736f6c634300080d0033a2646970667358221220b0da6002d6327e1f330da6144ef858c2dac8f664cf684b1144185e3485695e5964736f6c634300080d0033",
  "linkReferences": {},
  "deployedLinkReferences": {}
}