{
  "_format": "hh-sol-artifact-1",
  "contractName": "FundingFactory",
  "sourceName": "contracts/FundingFactory.sol",
  "abi": [
    {
      "inputs": [
        {
          "internalType": "address",
          "name": "_implementation",
          "type": "address"
        }
      ],
      "stateMutability": "nonpayable",
      "type": "constructor"
    },
    {
      "inputs": [],
      "name": "ERC1167FailedCreateClone",
      "type": "error"
    },
    {
      "inputs": [
        {
          "internalType": "address",
          "name": "owner",
          "type": "address"
        }
      ],
      "name": "OwnableInvalidOwner",
      "type": "error"
    },
    {
      "inputs": [
        {
          "internalType": "address",
          "name": "account",
          "type": "address"
        }
      ],
      "name": "OwnableUnauthorizedAccount",
      "type": "error"
    },
    {
      "anonymous": false,
      "inputs": [
        {
          "indexed": true,
          "internalType": "address",
          "name": "owner",
          "type": "address"
        },
        {
          "indexed": false,
          "internalType": "uint256",
          "name": "amount",
          "type": "uint256"
        },
        {
          "indexed": false,
          "internalType": "address",
          "name": "cloneAddress",
          "type": "address"
        },
        {
          "indexed": false,
          "internalType": "string",
          "name": "fundingCID",
          "type": "string"
        }
      ],
      "name": "NewCrowdFundingCreated",
      "type": "event"
    },
    {
      "anonymous": false,
      "inputs": [
        {
          "indexed": true,
          "internalType": "address",
          "name": "previousOwner",
          "type": "address"
        },
        {
          "indexed": true,
          "internalType": "address",
          "name": "newOwner",
          "type": "address"
        }
      ],
      "name": "OwnershipTransferred",
      "type": "event"
    },
    {
      "inputs": [
        {
          "internalType": "string",
          "name": "_fundingCId",
          "type": "string"
        },
        {
          "internalType": "string",
          "name": "_purpose",
          "type": "string"
        },
        {
          "internalType": "uint256",
          "name": "_amount",
          "type": "uint256"
        },
        {
          "internalType": "uint256",
          "name": "_duration",
          "type": "uint256"
        }
      ],
      "name": "createCrowdFundingContract",
      "outputs": [],
      "stateMutability": "payable",
      "type": "function"
    },
    {
      "inputs": [
        {
          "internalType": "address",
          "name": "",
          "type": "address"
        },
        {
          "internalType": "uint256",
          "name": "",
          "type": "uint256"
        }
      ],
      "name": "deployedContracts",
      "outputs": [
        {
          "internalType": "address",
          "name": "contractAddress",
          "type": "address"
        },
        {
          "internalType": "string",
          "name": "purpose",
          "type": "string"
        }
      ],
      "stateMutability": "view",
      "type": "function"
    },
    {
      "inputs": [],
      "name": "fundingFee",
      "outputs": [
        {
          "internalType": "uint256",
          "name": "",
          "type": "uint256"
        }
      ],
      "stateMutability": "view",
      "type": "function"
    },
    {
      "inputs": [],
      "name": "getUserdeployedContracts",
      "outputs": [
        {
          "components": [
            {
              "internalType": "address",
              "name": "contractAddress",
              "type": "address"
            },
            {
              "internalType": "string",
              "name": "purpose",
              "type": "string"
            }
          ],
          "internalType": "struct FundingFactory.FundingDetails[]",
          "name": "",
          "type": "tuple[]"
        }
      ],
      "stateMutability": "view",
      "type": "function"
    },
    {
      "inputs": [],
      "name": "owner",
      "outputs": [
        {
          "internalType": "address",
          "name": "",
          "type": "address"
        }
      ],
      "stateMutability": "view",
      "type": "function"
    },
    {
      "inputs": [],
      "name": "renounceOwnership",
      "outputs": [],
      "stateMutability": "nonpayable",
      "type": "function"
    },
    {
      "inputs": [
        {
          "internalType": "address",
          "name": "newOwner",
          "type": "address"
        }
      ],
      "name": "transferOwnership",
      "outputs": [],
      "stateMutability": "nonpayable",
      "type": "function"
    },
    {
      "inputs": [],
      "name": "withdrawFunds",
      "outputs": [],
      "stateMutability": "nonpayable",
      "type": "function"
    },
    {
      "stateMutability": "payable",
      "type": "receive"
    }
  ],
  "bytecode": "0x60a060405266038d7ea4c680006003553480156200001c57600080fd5b5060405162001a3938038062001a39833981810160405281019062000042919062000233565b33600073ffffffffffffffffffffffffffffffffffffffff168173ffffffffffffffffffffffffffffffffffffffff1603620000b85760006040517f1e4fbdf7000000000000000000000000000000000000000000000000000000008152600401620000af919062000276565b60405180910390fd5b620000c9816200010560201b60201c565b508073ffffffffffffffffffffffffffffffffffffffff1660808173ffffffffffffffffffffffffffffffffffffffff16815250505062000293565b60008060009054906101000a900473ffffffffffffffffffffffffffffffffffffffff169050816000806101000a81548173ffffffffffffffffffffffffffffffffffffffff021916908373ffffffffffffffffffffffffffffffffffffffff1602179055508173ffffffffffffffffffffffffffffffffffffffff168173ffffffffffffffffffffffffffffffffffffffff167f8be0079c531659141344cd1fd0a4f28419497f9722a3daafe3b4186f6b6457e060405160405180910390a35050565b600080fd5b600073ffffffffffffffffffffffffffffffffffffffff82169050919050565b6000620001fb82620001ce565b9050919050565b6200020d81620001ee565b81146200021957600080fd5b50565b6000815190506200022d8162000202565b92915050565b6000602082840312156200024c576200024b620001c9565b5b60006200025c848285016200021c565b91505092915050565b6200027081620001ee565b82525050565b60006020820190506200028d600083018462000265565b92915050565b60805161178a620002af6000396000610309015261178a6000f3fe60806040526004361061007f5760003560e01c8063715018a61161004e578063715018a6146101275780638da5cb5b1461013e578063f2fde38b14610169578063f47085211461019257610086565b806324600fc31461008b5780633840b497146100a257806345967555146100be5780635d16e120146100fc57610086565b3661008657005b600080fd5b34801561009757600080fd5b506100a06101bd565b005b6100bc60048036038101906100b79190610db5565b6102bd565b005b3480156100ca57600080fd5b506100e560048036038101906100e09190610eb2565b6105f8565b6040516100f3929190610f80565b60405180910390f35b34801561010857600080fd5b506101116106e1565b60405161011e9190610fbf565b60405180910390f35b34801561013357600080fd5b5061013c6106e7565b005b34801561014a57600080fd5b506101536106fb565b6040516101609190610fda565b60405180910390f35b34801561017557600080fd5b50610190600480360381019061018b9190610ff5565b610724565b005b34801561019e57600080fd5b506101a76107aa565b6040516101b4919061117a565b60405180910390f35b6101c561092e565b60004790506000811161020d576040517f08c379a0000000000000000000000000000000000000000000000000000000008152600401610204906111e8565b60405180910390fd5b60003373ffffffffffffffffffffffffffffffffffffffff168260405161023390611239565b60006040518083038185875af1925050503d8060008114610270576040519150601f19603f3d011682016040523d82523d6000602084013e610275565b606091505b50509050806102b9576040517f08c379a00000000000000000000000000000000000000000000000000000000081526004016102b09061129a565b60405180910390fd5b5050565b600354341015610302576040517f08c379a00000000000000000000000000000000000000000000000000000000081526004016102f990611306565b60405180910390fd5b600061032d7f00000000000000000000000000000000000000000000000000000000000000006109b5565b905060008173ffffffffffffffffffffffffffffffffffffffff168686868660405160240161035f9493929190611326565b6040516020818303038152906040527f6fe0e395000000000000000000000000000000000000000000000000000000007bffffffffffffffffffffffffffffffffffffffffffffffffffffffff19166020820180517bffffffffffffffffffffffffffffffffffffffffffffffffffffffff83818316178352505050506040516103e991906113b5565b6000604051808303816000865af19150503d8060008114610426576040519150601f19603f3d011682016040523d82523d6000602084013e61042b565b606091505b505090508061046f576040517f08c379a000000000000000000000000000000000000000000000000000000000815260040161046690611418565b60405180910390fd5b6000600460003373ffffffffffffffffffffffffffffffffffffffff1673ffffffffffffffffffffffffffffffffffffffff16815260200190815260200160002090506104ba610bf5565b83816000019073ffffffffffffffffffffffffffffffffffffffff16908173ffffffffffffffffffffffffffffffffffffffff16815250508681602001819052508181908060018154018082558091505060019003906000526020600020906002020160009091909190915060008201518160000160006101000a81548173ffffffffffffffffffffffffffffffffffffffff021916908373ffffffffffffffffffffffffffffffffffffffff16021790555060208201518160010190816105829190611644565b505050610599336001610a6690919063ffffffff16565b503373ffffffffffffffffffffffffffffffffffffffff167f3ed5503670ea3fb26efced58bf9ff3575280523b8b1bf031f639417a5b8005d4600354868b6040516105e693929190611716565b60405180910390a25050505050505050565b6004602052816000526040600020818154811061061457600080fd5b9060005260206000209060020201600091509150508060000160009054906101000a900473ffffffffffffffffffffffffffffffffffffffff169080600101805461065e90611467565b80601f016020809104026020016040519081016040528092919081815260200182805461068a90611467565b80156106d75780601f106106ac576101008083540402835291602001916106d7565b820191906000526020600020905b8154815290600101906020018083116106ba57829003601f168201915b5050505050905082565b60035481565b6106ef61092e565b6106f96000610a96565b565b60008060009054906101000a900473ffffffffffffffffffffffffffffffffffffffff16905090565b61072c61092e565b600073ffffffffffffffffffffffffffffffffffffffff168173ffffffffffffffffffffffffffffffffffffffff160361079e5760006040517f1e4fbdf70000000000000000000000000000000000000000000000000000000081526004016107959190610fda565b60405180910390fd5b6107a781610a96565b50565b6060600460003373ffffffffffffffffffffffffffffffffffffffff1673ffffffffffffffffffffffffffffffffffffffff168152602001908152602001600020805480602002602001604051908101604052809291908181526020016000905b8282101561092557838290600052602060002090600202016040518060400160405290816000820160009054906101000a900473ffffffffffffffffffffffffffffffffffffffff1673ffffffffffffffffffffffffffffffffffffffff1673ffffffffffffffffffffffffffffffffffffffff16815260200160018201805461089490611467565b80601f01602080910402602001604051908101604052809291908181526020018280546108c090611467565b801561090d5780601f106108e25761010080835404028352916020019161090d565b820191906000526020600020905b8154815290600101906020018083116108f057829003601f168201915b5050505050815250508152602001906001019061080b565b50505050905090565b610936610b5a565b73ffffffffffffffffffffffffffffffffffffffff166109546106fb565b73ffffffffffffffffffffffffffffffffffffffff16146109b357610977610b5a565b6040517f118cdaa70000000000000000000000000000000000000000000000000000000081526004016109aa9190610fda565b60405180910390fd5b565b6000763d602d80600a3d3981f3363d3d373d3d3d363d730000008260601b60e81c176000526e5af43d82803e903d91602b57fd5bf38260781b17602052603760096000f09050600073ffffffffffffffffffffffffffffffffffffffff168173ffffffffffffffffffffffffffffffffffffffff1603610a61576040517fc2f868f400000000000000000000000000000000000000000000000000000000815260040160405180910390fd5b919050565b6000610a8e836000018373ffffffffffffffffffffffffffffffffffffffff1660001b610b62565b905092915050565b60008060009054906101000a900473ffffffffffffffffffffffffffffffffffffffff169050816000806101000a81548173ffffffffffffffffffffffffffffffffffffffff021916908373ffffffffffffffffffffffffffffffffffffffff1602179055508173ffffffffffffffffffffffffffffffffffffffff168173ffffffffffffffffffffffffffffffffffffffff167f8be0079c531659141344cd1fd0a4f28419497f9722a3daafe3b4186f6b6457e060405160405180910390a35050565b600033905090565b6000610b6e8383610bd2565b610bc7578260000182908060018154018082558091505060019003906000526020600020016000909190919091505582600001805490508360010160008481526020019081526020016000208190555060019050610bcc565b600090505b92915050565b600080836001016000848152602001908152602001600020541415905092915050565b6040518060400160405280600073ffffffffffffffffffffffffffffffffffffffff168152602001606081525090565b6000604051905090565b600080fd5b600080fd5b600080fd5b600080fd5b6000601f19601f8301169050919050565b7f4e487b7100000000000000000000000000000000000000000000000000000000600052604160045260246000fd5b610c8c82610c43565b810181811067ffffffffffffffff82111715610cab57610caa610c54565b5b80604052505050565b6000610cbe610c25565b9050610cca8282610c83565b919050565b600067ffffffffffffffff821115610cea57610ce9610c54565b5b610cf382610c43565b9050602081019050919050565b82818337600083830152505050565b6000610d22610d1d84610ccf565b610cb4565b905082815260208101848484011115610d3e57610d3d610c3e565b5b610d49848285610d00565b509392505050565b600082601f830112610d6657610d65610c39565b5b8135610d76848260208601610d0f565b91505092915050565b6000819050919050565b610d9281610d7f565b8114610d9d57600080fd5b50565b600081359050610daf81610d89565b92915050565b60008060008060808587031215610dcf57610dce610c2f565b5b600085013567ffffffffffffffff811115610ded57610dec610c34565b5b610df987828801610d51565b945050602085013567ffffffffffffffff811115610e1a57610e19610c34565b5b610e2687828801610d51565b9350506040610e3787828801610da0565b9250506060610e4887828801610da0565b91505092959194509250565b600073ffffffffffffffffffffffffffffffffffffffff82169050919050565b6000610e7f82610e54565b9050919050565b610e8f81610e74565b8114610e9a57600080fd5b50565b600081359050610eac81610e86565b92915050565b60008060408385031215610ec957610ec8610c2f565b5b6000610ed785828601610e9d565b9250506020610ee885828601610da0565b9150509250929050565b610efb81610e74565b82525050565b600081519050919050565b600082825260208201905092915050565b60005b83811015610f3b578082015181840152602081019050610f20565b60008484015250505050565b6000610f5282610f01565b610f5c8185610f0c565b9350610f6c818560208601610f1d565b610f7581610c43565b840191505092915050565b6000604082019050610f956000830185610ef2565b8181036020830152610fa78184610f47565b90509392505050565b610fb981610d7f565b82525050565b6000602082019050610fd46000830184610fb0565b92915050565b6000602082019050610fef6000830184610ef2565b92915050565b60006020828403121561100b5761100a610c2f565b5b600061101984828501610e9d565b91505092915050565b600081519050919050565b600082825260208201905092915050565b6000819050602082019050919050565b61105781610e74565b82525050565b600082825260208201905092915050565b600061107982610f01565b611083818561105d565b9350611093818560208601610f1d565b61109c81610c43565b840191505092915050565b60006040830160008301516110bf600086018261104e565b50602083015184820360208601526110d7828261106e565b9150508091505092915050565b60006110f083836110a7565b905092915050565b6000602082019050919050565b600061111082611022565b61111a818561102d565b93508360208202850161112c8561103e565b8060005b85811015611168578484038952815161114985826110e4565b9450611154836110f8565b925060208a01995050600181019050611130565b50829750879550505050505092915050565b600060208201905081810360008301526111948184611105565b905092915050565b7f6e6f7468696e6720746f20776974686472617700000000000000000000000000600082015250565b60006111d2601383610f0c565b91506111dd8261119c565b602082019050919050565b60006020820190508181036000830152611201816111c5565b9050919050565b600081905092915050565b50565b6000611223600083611208565b915061122e82611213565b600082019050919050565b600061124482611216565b9150819050919050565b7f7769746864726177616c206661696c6564000000000000000000000000000000600082015250565b6000611284601183610f0c565b915061128f8261124e565b602082019050919050565b600060208201905081810360008301526112b381611277565b9050919050565b7f6465706f73697420746f6f20736d616c6c000000000000000000000000000000600082015250565b60006112f0601183610f0c565b91506112fb826112ba565b602082019050919050565b6000602082019050818103600083015261131f816112e3565b9050919050565b600060808201905081810360008301526113408187610f47565b905081810360208301526113548186610f47565b90506113636040830185610fb0565b6113706060830184610fb0565b95945050505050565b600081519050919050565b600061138f82611379565b6113998185611208565b93506113a9818560208601610f1d565b80840191505092915050565b60006113c18284611384565b915081905092915050565b7f6372656174696f6e206661696c65640000000000000000000000000000000000600082015250565b6000611402600f83610f0c565b915061140d826113cc565b602082019050919050565b60006020820190508181036000830152611431816113f5565b9050919050565b7f4e487b7100000000000000000000000000000000000000000000000000000000600052602260045260246000fd5b6000600282049050600182168061147f57607f821691505b60208210810361149257611491611438565b5b50919050565b60008190508160005260206000209050919050565b60006020601f8301049050919050565b600082821b905092915050565b6000600883026114fa7fffffffffffffffffffffffffffffffffffffffffffffffffffffffffffffffff826114bd565b61150486836114bd565b95508019841693508086168417925050509392505050565b6000819050919050565b600061154161153c61153784610d7f565b61151c565b610d7f565b9050919050565b6000819050919050565b61155b83611526565b61156f61156782611548565b8484546114ca565b825550505050565b600090565b611584611577565b61158f818484611552565b505050565b5b818110156115b3576115a860008261157c565b600181019050611595565b5050565b601f8211156115f8576115c981611498565b6115d2846114ad565b810160208510156115e1578190505b6115f56115ed856114ad565b830182611594565b50505b505050565b600082821c905092915050565b600061161b600019846008026115fd565b1980831691505092915050565b6000611634838361160a565b9150826002028217905092915050565b61164d82610f01565b67ffffffffffffffff81111561166657611665610c54565b5b6116708254611467565b61167b8282856115b7565b600060209050601f8311600181146116ae576000841561169c578287015190505b6116a68582611628565b86555061170e565b601f1984166116bc86611498565b60005b828110156116e4578489015182556001820191506020850194506020810190506116bf565b8683101561170157848901516116fd601f89168261160a565b8355505b6001600288020188555050505b505050505050565b600060608201905061172b6000830186610fb0565b6117386020830185610ef2565b818103604083015261174a8184610f47565b905094935050505056fea2646970667358221220acbd15ced423957f60a6cf1c7e9142bcc1ca1ab1acf51e042752765c5a99f2a964736f6c63430008140033",
  "linkReferences": {},
  "deployedLinkReferences": {}
}